S01B00006275696C642F72656C656173652F7A69676265652E73333714
S2140040000010002099680000459B0000499B0000B6
S214004010754303004D9B0000559B0000754303004D
S214004020754303007543030075430300754303009F
S214004030599B00005060040075430300754303005D
S214004040754303007543030075430300A164000035
S214004050754303007543030075430300754303006F
S214004060754303007543030021AE0000754303004B
S214004070754303007543030075430300754303004F
S214004080754303007543030075430300754303003F
S21400409075430300956A00007543030075430300EB
S2140040A075430300556C0000356C00007543030033
S2140040B075430300FD980300754303009D07020047
S2140040C003990300FF98030011FF01000F990300F6
S2140040D007990300610702000B99030001ED010038
S2140040E0DD070200754303007543030075430300B4
S2140040F075430300754303007543030075430300CF
S21400410075430300754303007543030075430300BE
S21400411075430300754303007543030075430300AE
S214004120754303007543030075430300754303009E
S21400413075430300000000002DE9F04F4FF0FD0B23
S214004140C9B09A460DF11B099DF8503108AFCDF85D
S2140041500C90CDF808B001970593038904460093A8
S21400416083790E4690464188828840780FF02CFD71
S214004170054650B10090A388002062883A4910F0A6
S21400418067F8284649B0BDE8F08F99F8000032F08D
S21400419068FB38B12846A3886288344910F058F87E
S2140041A08D25EEE75A46394699F8000032F02AFB8C
S2140041B08346002851D0529B1BB1BDF84C31984223
S2140041C04BD8002399F800900793A9F14102012AE1
S2140041D05FFA8BF123D838460139254ADFF898C0B4
S2140041E05FFA81FE734513DB059B04210792C3B972
S2140041F007AF18221F489FED1A7B02FB06042046D5
S2140042000A460830394684ED027B14F0F9FA11E0CC
S21400421010F8011F013351400CFB01F2E2E7059B49
S21400422033B123464A46384600960DF0D9FDA8E736
S2140042300829DED9B8F1000F01D088F80090BAF14D
S214004240000F01D0AAF800B0529B002B99D05A4616
S214004250184608A914F0D4FA93E7012591E700BFA1
S2140042600000000000000000500E0400810E040054
S214004270C59D1C810019002093010001000000006C
S2140042802DE9F04F93B0CDE90A32DDE91C530E93C9
S21400429053EC102BCDE90801104619468DED060BA0
S2140042A01E9E13F093FC80B1DDE906014FF0FF324D
S2140042B0C54B13F0B3FC40B9DDE906014FF0FF3201
S2140042C06FF4801313F08CFC70B1DDE908019DEDEE
S2140042D0060B0E9B1E96CDE91C53DDE90A3213B081
S2140042E0BDE8F04F00F088B90022DDE906010023A2
S2140042F013F076FC002800F03381DDE906A303F115
S214004300004BCBF30A5016F48063A0F2FF3008BFD0
S21400431006250F9313F088F99BA3D3E9002313F027
S214004320EDF99BA3D3E9002313F032F8CBF3130483
S214004330894644F07F5180460022A44B504641F403
S214004340401113F023F894A3D3E9002313F0D6F911
S21400435002460B464046494613F01AF813F068FC2E
S214004360044613F061F98EA3D3E9002380468946FC
S21400437013F0C4F90022964B13F00AF813F058FC19
S21400438089A3D3E9002307464946404613F0B6F909
S21400439080463846894613F047F985A3D3E90023BB
S2140043A013F0ACF902460B464046494612F0EEFFC3
S2140043B002460B46CDE90C2313F0A0F9DDE90C23E9
S2140043C0804689461046194612F0E2FF0022CDE9E3
S2140043D01001804B4046494613F0BAFA00227E4B45
S2140043E012F0D6FF02460B464046494613F0B0FA96
S2140043F000227A4B12F0CCFF02460B464046494656
S21400440013F0A6FADDE90C238046894600204FF01B
S214004410804112F0BBFF02460B464046494612F06A
S214004420B7FF02460B46DDE9100113F091FA07F2DA
S214004430FF3700226A4B12F0ABFF00223B0513F059
S2140044405DF952465B468046894613F0E7FB002836
S21400445040F08980CDE90C8904F16303C62B8CBF3C
S2140044600527042731051BD553A3D3E9002350465F
S214004470594613F0C9FB00287FD051A3D3E9002387
S2140044805046594613F0ACFB002876D00027A542CC
S214004490C6BF2C1B04F1FF3500253C4646F480665B
S2140044A00E9B9F422CBF4FF00008A3EB070816F0A8
S2140044B0020903D0002F18BF4FF000083CB1DDE919
S2140044C00C235046594613F043FA82468B46DDE9E4
S2140044D006010022002313F083FB10B10BF100430A
S2140044E09B46DDE9080126F40063CDE90183DDE99A
S2140044F00A324BEC10AB009500F07EF802465FB334
S214004500DDE9091316F0200F00F10105089E0CBF27
S21400451065204520B047DDE9080105230022059304
S2140045200A23002CCDE9023207F1FF374FEAD47395
S214004530B8BF64422A46019304970A9B009433F05E
S2140045403CFF0246B9F1000F06D00B9BC41A0B9B2A
S2140045501A190E9BA34245D8104613B0BDE8F08F3B
S214004560DDE906ABCDE60022404649461A4B13F07D
S214004570EFF9013CCDE90C016EE7002D90D00F9BC2
S214004580002B8DD0013D8BE7FB799F501344D33F22
S214004590B3C8608B288AC63F61436F63A787D23F44
S2140045A071A379094F930A401655B5BBB16B02400B
S2140045B0EF39FAFE422EE63F2D431CEBE2361A3F59
S2140045C00000000080842E41FFFFEF7F0000F83FD0
S2140045D00000E03F00002C4000002440000018408F
S2140045E00000F03F2020DDE90913089DA8470134AC
S2140045F0ADE700BF000000002DE9F04F5BEC10AB0C
S21400460097B0CDE90501DDE92058CDE907235046EE
S21400461052465B465946229F13F0D8FA70B90323D8
S214004620CDE902870193AA4B0093DDE90501DDE998
S214004630072333F0F4FD17B0BDE8F08F4FF0FF32DC
S2140046406FF480135046594613F0CAFA28B1042373
S214004650CDE9028701939F4BE6E74FF0FF325046C5
S21400466059469D4B13F0DAFA68B19C4A07F00403EA
S214004670002B08BF03229A4B1CBF13460422CDE929
S21400468002870192D0E750468DA3D3E9002359460E
S21400469013F0C4FA38B98CA3D3E900235046594620
S2140046A013F09EFA68B1DDE90723DDE905014BEC5E
S2140046B010ABCDE92187209517B0BDE8F04FFFF786
S2140046C0DFBD002200235046594613F089FA002821
S2140046D000F091805B4652460020002112F056FE04
S2140046E0012382468B46099317F4806400F0858088
S2140046F0092D40F28580002430210EABA5F1090279
S2140047000134202C03F8011BA5EB040901D09442C8
S214004710F6D15946504613F08BFA724B054603EB1A
S214004720C90393ED007B8DED0A7B12F07DFF0246F8
S2140047300B465046594612F029FEDDE90A2312F0D0
S214004740DDFF02460B46CDE90C2313F099FA064628
S21400475012F05AFF02460B46DDE90C0112F016FE77
S21400476002460B46CDE90C2300225F4B13F056FAA7
S214004770002848D00136304612F046FF02460B4667
S214004780DDE90A0113F036FA08B100260135B9F161
S214004790000F45D1284612F047FF02460B4650460A
S2140047A0594612F0F3FD00224F4B13F019FA10B9D8
S2140047B0E90700D501350A210EAB1A19202C0AD0BC
S2140047C095FBF1F001FB1055303502F8015B013422
S2140047D005460028F2D107F00302012A55D1B8F1A8
S2140047E0000F52D0099A12B917F00C0F01D008F139
S2140047F0FF38302240E0099076E74FF0060988E758
S214004800A946002485E70022DDE90C01364B13F0AB
S214004810E7F90028BBD10EB1F007B8D50136B6E7E8
S2140048200A210EAB1A19202C0DD0B6FBF1F001FBB5
S2140048301063092E03F1300309F1FF3904F1010476
S21400484002F8013B11D83021A1440EAA202CB2D088
S2140048504C4504F101030AD104F158020DEB0204A1
S2140048602E2204F8202C1C46A5E70646DBE7A154BA
S2140048701C46EBE71A550134444506D2202CF9D1E4
S214004880CDE9028701940EABCEE6202CF8D0099B2A
S2140048903BB12D2204F158036B4403F8202C01345D
S2140048A0EEE77A0704D504F158032B226B44F4E7AD
S2140048B03B07E5D504F1580320226B44EDE700BF23
S2140048C00000000065CDCD410000000065CDCDC1E3
S2140048D02F2A0400332A0400FFFFEF7F262A040055
S2140048E02B2A0400307004000000E03F00000000A7
S2140048F070B58EB02C22002103A813F04DFD642362
S2140049004FF002320893CDE905230B2301218DF8E1
S2140049103430514B8DF810101B88D80700F1958065
S21400492008461CF04BF80A224C4B4D491A704FF4BF
S21400493028734C48ADF812301BF0C6FF4A4C206076
S21400494020B940F25B21494804F0F8FF05212068B1
S21400495034F0BCFB20B140F26B21444804F0EEFF7B
S214004960206812F0CFFC424B2068196834F025FC12
S2140049700C251CF003FF684309901CF0FFFE6843FB
S2140049800DEB05010790206816F048FA20B14FF4A9
S2140049902071364804F0D2FF00223649206834F0F1
S2140049A08BFC20B140F28221304804F0C7FF40F271
S2140049B00353314D314E2B80052396F90000AB7022
S2140049C07F2801D11CF058F93378EB701CF0D6FE26
S2140049D000EB80008000A8801CF0D0FE0023C00002
S2140049E04FF0FF31E880AB604FF0FF3018A3D3E9FB
S2140049F000231CF09FF92249206835F028F820682B
S214004A0002A934F033FC20B140F2BB21174804F071
S214004A1095FF042220680DEB020134F0BCFB04284D
S214004A2004D040F2BE21114804F088FF01A90120FD
S214004A3035F0C7F805F0CAF801201DF02DF92FF063
S214004A406CFD1DF053F91CF03DF80EB070BD00BFB4
S214004A500A0020FF42030000E26300208D6700206A
S214004A60E5090200D81300206C5B00202B5F0400D1
S214004A70141200209B670020605B0020C8160020F0
S214004A80850B02000348044B834202D0034B03B15C
S214004A90184770479C1800209C1800200000000053
S214004AA0064B0749C91A891048BF0131491003D07F
S214004AB0044B0BB101481847704700BF9C180020F4
S214004AC09C1800200000000010B5064C237843B95F
S214004AD0FFF7D8FF044B13B10448AFF3008001235F
S214004AE0237010BDE01E002000000000B4AC0400DF
S214004AF008B5044B1BB104490448AFF30080BDE879
S214004B000840CDE700000000E41E0020B4AC04001E
S214004B10A3F5803A704700BF154B002B08BF114B1A
S214004B209D46FFF7F5FF00218B460F461148124AB7
S214004B30121A13F031FC0C4B002B00D098470B4B8D
S214004B40002B00D098470020002104000D000B48E1
S214004B5014F010F813F0F8FB200029002FF0A8FA44
S214004B6013F0F6FF00000800000000000000000040
S214004B70001000209C180020F0670020DD8B01004C
S214004B8038B52FF07DFA012805D02FF079FA0228E3
S214004B9001D02FF083FA064D2B783BB92FF070FA30
S214004BA00128044602D12FF07BFA2C7038BD00BFD6
S214004BB06264002038B50C4601F11C0528462FF02B
S214004BC0FEF9208800F0C0FB84F844002FF0FBF9C3
S214004BD094F84410A064044812F090FA2846BDE801
S214004BE0384032212FF0E6B980C6030010B50446DF
S214004BF0008800F0A9FB10B90123E3702371208818
S214004C002246064900F0B4FB054B04F11C00C4E93B
S214004C100734BDE8104000F0C3BC00BFB54B000031
S214004C200F3E030070B5C37804460D461646002BAB
S214004C3033D1C1B1204812F061FAE36CA6600BB123
S214004C40E06D9847E368F61A63699E4222D2217E99
S214004C501A480131C9B2217612F050FAA36D13B189
S214004C60217EE06D9847E5702FF0ADF915B32379F6
S214004C7003BB238AF3B1A268801A83421AD20123A7
S214004C800F48237112F03AFA236D9BB1E06DBDE830
S214004C907040184701232376E5E70029E3D1094849
S214004CA012F02CFA636DE6602571002BDBD0E06D08
S214004CB09847D8E770BD00BF9DC60300AEC6030088
S214004CC0DCC60300C9C60300F8B504460D46817865
S214004CD0008817461E462FF0BBF80123E370084BEA
S214004CE0E5802781A680C4E903340C34204600F012
S214004CF057FC29462046BDE8F8402FF05BB900BFB8
S214004D005B3E030010B504460B4812F0F7F9208806
S214004D1021792FF00BF9608828B12179B1FA81F159
S214004D2049092FF003F90121A36861711BB1E068FE
S214004D30BDE81040184710BDF2C6030010B5044683
S214004D400B4812F0DBF921792088B1FA81F1490984
S214004D502FF0ECF8608810B121792FF0E7F80021E9
S214004D60A36861711BB1E068BDE81040184710BD2C
S214004D70FDC6030010B50446064812F0BFF9637975
S214004D8020461BB1BDE81040FFF7D8BFBDE8104075
S214004D90FFF7B8BF09C7030010B50E4C0E482146F2
S214004DA012F0ACF982210D4812F0A8F982210220F7
S214004DB0A21E00F0A7FB014630B134F8022C0848CA
S214004DC0BDE8104012F09AB90648BDE8104012F04F
S214004DD095B900BF225D002018C7030033C7030043
S214004DE03EC7030082C7030038B5124C8221224614
S214004DF0022000F077FBA51C014698B122880E48D9
S214004E0012F07CF92A460D4B03F13C0153F8040BD3
S214004E108B4242F8040BF9D119889B781180937065
S214004E203E23238035F8021C054A0648BDE8384074
S214004E3012F064B9205D00208DC703000DC8030082
S214004E40225D0020EBC703000128034801D12FF0A4
S214004E5058B82FF058B800BF7811002070B500245D
S214004E600C4D0D4E3378A3420BDC2FF009F90128C8
S214004E700A480CD12FF045F8BDE87040084800F00D
S214004E80B1BC2846FFF7B2FE01346035EAE72FF0E2
S214004E903AF8F1E7D024002066640020781100205C
S214004EA0494E00002DE9F74FFFF79EFFB74B01A8CC
S214004EB001932FF04CF8054613F06AF9B44CC2B2D1
S214004EC01F2A627004D9B34812F018F900F0ECF902
S214004ED02946A01C13F094FC01A82FF038F80546CC
S214004EE013F056F9C2B21F2A84F8212001D9AA4825
S214004EF0EAE7294604F1220013F082FC01A82FF00D
S214004F0026F800260446A54FDFF8C0922578002D27
S214004F1050D1A34FDFF8B892FFF7A0FF99F8003002
S214004F203E78DFF884B21E44F6B2012E38BF012662
S214004F305B46DA464FF482714FF6FF720135AE4299
S214004F401D7059809A8003F10C03F7DC0025954C00
S214004F5095498F48CAF8084000F0E0FC9AF8070028
S214004F60DAF8083000EB400003EB800000F00CFBA2
S214004F709AF80730DFF8348201338AF807303B7836
S214004F80AB4200F3538100254FF00C08DFF838B22F
S214004F9099F80010A94200F35C813146824800F07F
S214004FA061FB019B79491A468B4240F06D8103B044
S214004FB0BDE8F08F423D112D64D8DFE815F01F00E4
S214004FC063006300630063006300630068006300BF
S214004FD063003D00120063006300630063000B0182
S214004FE0AB006F4B012019780023704A994202F1FA
S214004FF0A40247DD02F8A20C0133F7E7601C00F0BC
S2140050004FFA0546E01C2EF0BFFF01210246284657
S21400501000F054F960226648664C03785A43A1189B
S214005020A5524FF4FA620A824FF448724A61624A05
S2140050300A650133037025E0601C00F031FA002297
S2140050404FF0340A83465D4E114600F037F930784B
S2140050505B4D0AFB00F325F803B0EA18E378104628
S214005060693B18BF012393702EF035FF0021554A87
S21400507033785160012103FB0A550B4433700E460A
S2140050801560117401A82EF062FF04463EE7601C0E
S21400509000F006FA00221146834600F00FF934228B
S2140050A0464DDFF81CA1287802FB00F32AF803B06F
S2140050B00AEB0301E3780846693B18BF01238B70AF
S2140050C02EF009FF4049002308468A6BC2B93C22ED
S2140050D002FB030034232A7802FB03A383635EB932
S2140050E0384A3346114652F8040B78B934222878E9
S2140050F000FB02A241F823202B7801332B70C1E776
S2140051000133042B01F13C01DFD1E8E70133042B26
S214005110E9D1F1E7601C00F0C3F90546E01C2EF06B
S21400512033FF01210246284600F0C8F860232048D5
S214005130204C02784FF0A40C5343E118E5524FF48C
S2140051404873174D0B824B612B78DFF860E00CFB41
S21400515003FC0EEB0C010EF80C304FF4007CA1F8AB
S21400516002C04FF0030C81F804C081F806C002EBC1
S214005170420C04EB4C148C6032240133DBB2013257
S2140051804B7181F8A0400270B8E700BF225D002096
S214005190981000204CC8030063C803006564002014
S2140051A064640020741F0020FC1E0020E421002000
S2140051B066640020D0240020373F03006764002088
S2140051C0B026002078110020F42000208024002043
S2140051D063640020601C00F063F900220546114657
S2140051E000F06CF83B781A0129F80250012209EB0E
S2140051F003131A71E3785BB1E01C00F051F900224A
S2140052000446114600F05AF83B7809EB03135C801D
S2140052103C222248224903785A438C188B543A7809
S21400522009EB0211013261633A7002E73DB11BF8E7
S214005230053C03EB430304EB8304CBF808405946D4
S214005240404600F0F9FE013508F1A4080BF10C0BFE
S21400525095E639782944481E08FB00A008FB01A102
S214005260C07900EB400004EB800458468C6000F0E8
S214005270E7FC39780B48294408FB01A100F03EFC06
S21400528001350BF13C0B83E613F8011D00297FF472
S21400529089AE3B2102F8011C84E600BF636400204F
S2140052A0F42000207424002008B5034811F026FFDF
S2140052B000F038F92EF077FE73C803000B460E494F
S2140052C010B40446087808B9012008700B48210A73
S2140052D0405CE1B273B1012A04D0022A08D0002350
S2140052E0012201E0134602225DF8044B02F0FEB9EB
S2140052F00023F9E70422F7E7696400203060040021
S2140053003021074A030AD35C01224B4341F21001C5
S214005310C0B203F1A043824003F570335A50704781
S214005320306004003021074A030AD35C01224B4355
S21400533042F21001C0B203F1A043824003F570337D
S2140053405A50704730600400084A030AD15C1422A1
S214005350302313FB012303F1A04303F570331B68CE
S214005360C0B223FA00F000F001007047306004007D
S2140053702DE9F04F434B8246187885B008B90120D6
S2140053801870414C23783BB9CDE9021201F0D8FBE6
S214005390DDE90212012323703C484FEA1A23C65C5B
S2140053A0002430203A4D5FFA8AF700FB04F315F824
S2140053B003C0BCF1000F5ED10120E4B2E8544FF008
S2140053C0300904EB440005EB0018404609FB045B7B
S2140053D01030CBE902122F49ABF802A008F09EF974
S2140053E039463046CBF8288002F0C0F9022847D16B
S2140053F0102319FB063303F1A04303F570331B6833
S214005400FB4003F00103C3F10203DBB24FF0300AA6
S2140054104FF001090AFB045A42461F4920468AF803
S214005420043001F0D5FB4B46224639463046CDE9DE
S214005430009902F015F9434639463046174A9AF85D
S21400544004A001F095FBFF2880460CD0AAF10202CA
S2140054505342534139460246CDF80090304602F09A
S214005460B5F95FFA88F8302303FB045585F8018008
S21400547005B0BDE8F08F0134102C96D1FF249EE7CE
S2140054800023C3E7696400206864002030600400DD
S214005490B4270020693F0300773F0300853F0300E1
S2140054A080B10278A2F14103032B0BD84078303844
S2140054B0C0B2082806D8054B134413F8413C40EA0E
S2140054C0032070474FF6FF70704700BF306004003F
S2140054D020B1034B98420CBF01200220704700BF4A
S2140054E00BE000F008B50B4642B1014604480068E0
S2140054F014F0F0FEBDE80840FFF7EABF022008BD42
S2140055001012002008B50B4642B101460448006858
S21400551014F096FEBDE80840FFF7DABF022008BD8B
S214005520101200202DE9F0414FF00008144E154FE0
S2140055308CB0FF2300930A224346306802A933F05A
S21400554023FCC8B102AB1C4603EB800505E054F80B
S214005550043B434528BF03F10108A5423068E8D95B
S214005560216815F019F80028F1D0B842EFD00CB039
S214005570BDE8F041FFF7ACBF0CB0BDE8F08100BF5E
S214005580101200200BE000F028B1034B0360034B21
S2140055904360002383607047190000038C110020CD
S2140055A0FF2313B5044A044600210093083008F090
S2140055B03DF8246202B010BDAD3F03000B4604491F
S2140055C0024608680349097808B12EF003BD704703
S2140055D0BC2A00206A640020F8B50C4618B12121C8
S2140055E00E4804F0ABF9246823685E795F8830467D
S2140055F03946FFF7E3FF08B98120F8BD8568002D1E
S214005600FAD0A368E27C3046F9B2A84704460028E0
S214005610F2D131F0D0FD2046EFE700BF80C803008E
S214005620F8B515460D4A044610680D4A0B46117823
S21400563050B122462EF0CEFC034628B100210C279E
S214005640C678B14201DB0020F8BD07FB01F45A68BA
S2140056501019125BAA42F7D00131F2E7BC2A0020EB
S2140056606A6400202DE9F74F04460D460026454B98
S214005670454F1860454B197033010021F85C013620
S2140056800EF022F90C2EF7D10C2D28BF0C254FF06A
S214005690000901953C4EDFF800A13D4DDFF8FC8087
S2140056A0019B4B4502DC03B0BDE8F08F23784FF03A
S2140056B0000B337063887380A388B380A379C6F821
S2140056C00880B371E379C8F8005088F804304FF0CA
S2140056D00003A768A8F80630E3795B450ADC0121D9
S2140056E016F8100B0EF0F0F808F1080809F1010999
S2140056F00C34D5E74FF0000338886B812880FB78A0
S2140057004FF0000C2B81BA78C5F804A0002A00924E
S2140057100CBF802240222A7379680AF10C02634586
S21400572013DC03EB43030AEB830ABB6843B1009A1E
S2140057304FF6FF71B2FA82F2164B520931F0B9FCFD
S21400574014350BF1010B0C37C6E7B1F800E00CF18D
S214005750010C22F80CEC91F802E00C3202F816EC80
S21400576091F804E00C3102F815EC11F809ECBEF1E2
S214005770010F14BF4FF0100E4FF0110E02F814EC8C
S214005780CDE700BFBC2A0020B44100206A64002098
S214005790C0300020D9550000C02A00204033002029
S2140057A0014B1860704700BFB82A002070B51288F9
S2140057B005460E46FFF734FF044670B10279049999
S2140057C0806812F0DFFE064B1B680BB9002070BD28
S2140057D028462288F1B29847F8E78620F7E700BF08
S2140057E0B82A0020014B1860704700BFB42A00207A
S2140057F0054B10B51C682CB12EF042FC2346BDE8C4
S2140058001040184710BD00BFB42A002037B5044624
S214005810002830D030F097FF02282ED1184A63892E
S214005820E0791380227A003818BF0120012A627AB4
S21400583008BF40F008000AB140F010000BB140F07D
S2140058400400257CA188A2790DB1E3686BB90D4BE5
S2140058500EF086FB217808460EF0FCFB31F01FFBAD
S214005860002818BF032003B030BDCDE90035064B35
S2140058700EF076FBEEE70220F5E70120F3E700BF27
S2140058806C160020D51A040066EB0300034B044A8E
S2140058905B7C012103201370FFF734BE78110020D3
S2140058A06B64002010B50446FFF7F0FFB4F57F4F99
S2140058B010D10D4B1A88134400229A70FFF76CFA29
S2140058C00A48FFF76DFEBDE810404FF49671074892
S2140058D02EF070BB4FF601739C4204D1BDE8104019
S2140058E003482EF0FABA10BD205D0020B01100204B
S2140058F07811002010B5074C012122460320FFF73F
S214005900F1FD28B92378044A003B18BF01235374DD
S21400591010BD00BF6B640020781100200822F8B587
S21400592032244B4B1A7030225C70DC7035249A702F
S214005930DA7133221C7131241A724FF400125C7132
S2140059409C71444C4264C464434C01220465434C3D
S21400595085188465424CC567C465424C424D446612
S214005960424CC0F880508466414C80F8482004675A
S214005970404C80F854204467202480F8784080F813
S214005980844000F12104C0F888403B4C80F8602039
S214005990C0F88C40394C80F86C20C0F89440384CE5
S2140059A080F89020C0F8984080F89C20354CC0F8CD
S2140059B0B830354BC0F8A440C0F8BC300E240223E3
S2140059C080F8A84080F8C030304C314BC0F8AC406E
S2140059D0C0F8C4302F4C304BC0F8B040C0F8C830C8
S2140059E0092482232D4D80F8B44080F8CC302C7CDE
S2140059F02B4BC0F8A000C0F8D03044B1294B80F83B
S214005A00D820C0F8D43005F11103C0F8DC304FF0D0
S214005A10000CCA798E6802EB42039F00443006EB06
S214005A20830326F807C0586001200C349870DC7099
S214005A301318CB71FFF75EFF2EF022FB012806D16C
S214005A402B7C23B1BDE8F84014482EF046BAF8BDCA
S214005A506C640020486004000100200047600400D9
S214005A6002002000466004000500420003002000FB
S214005A704560040004004200070030004460040053
S214005A801200100100404200FDFF210034600400B7
S214005A90426004000600420000FF44017811002026
S214005AA0205D002001FF100170B50D460646144625
S214005AB013460A4601460D4811F020FB25B920463C
S214005AC0BDE87040FFF7EEBE072D05D121463046F3
S214005AD0BDE8704000F086BA062D05D12146304656
S214005AE0BDE8704000F060B870BD00BFEDC80300B0
S214005AF00148FFF755BE00BFA95A00004FF4C01377
S214005B0030B5036001230371074B8C688360CA7944
S214005B1002EB420304EB83056860044844F8230064
S214005B20531CCB7130BD00BF496004000400010166
S214005B300229024608B50ED004D839B910462EF010
S214005B40ECFA06E04029F9D0412907D110462EF09C
S214005B50DAFA002008BD2EF0EAFAFAE7014811F05A
S214005B60CDFAF6E720C9030011461A46024B53F851
S214005B702000FFF7DDBF00BFA0330020426B094BBB
S214005B8052791A7082785A70C2789A70826B0AB10B
S214005B90D278DA70007804210930024AC0B2FFF7E2
S214005BA0B1BC00BF75640020024B53F820002EF0F5
S214005BB0DABA00BFA033002038B504460078064D98
S214005BC009302A460421C0B2FFF78CFC18B96B785E
S214005BD0A370AB78E37038BD7564002038B5044612
S214005BE00078164D09302A460421C0B2FFF77AFC29
S214005BF018BBA3782A78022B12D004D893B9204673
S214005C002EF08BFA01E0FF2B10D0A06BA8B1E37842
S214005C10022B12D1EB7863B1BDE838402EF043B9C1
S214005C20002AECD120462EF06EFAEEE7002AF9D1D3
S214005C30E5E7BDE838402EF041B938BD7564002070
S214005C40F8B504460B78214A0D4642F82300437007
S214005C50FFF7B2FF636B1E4ADC609A602046FFF7D0
S214005C60BDFF20462EF033FA4FF480136360012305
S214005C70626BA06B0532E260164A23722261A21C98
S214005C802375A26158B1144A84F82030E261E21C00
S214005C906262124A84F82C30C31CA2622363062771
S214005CA0E979AE6801EB4103002826F8237006EB7D
S214005CB083020CBF02230423D37001239370084B86
S214005CC0043493604B1C5460EB71F8BDA033002085
S214005CD0434103000340300101FF300102FF100181
S214005CE0695B00000A2910B510D92EF0D5F9084CCA
S214005CF0084B2046236000236360FFF751FC2046D4
S214005D00BDE810404FF4FA612EF054B910BD00BF44
S214005D10C833002099410300024641793C20084BD5
S214005D20013900FB0130D378042B08D8012B04D8A6
S214005D300BB92EF0E8B92EF0F0B92EF0F8B970478E
S214005D40F4200020024641793C20084B013900FB34
S214005D500130D378042B08D8012B04D80BB92EF0C9
S214005D60DCB92EF0D0B92EF0E2B97047F42000204E
S214005D7030B587B0044645792EF082F9012822D145
S214005D80E2786B1E042A1ED8DFE802F00433031FF5
S214005D902900104663784FF480728DF804304FF473
S214005DA08273ADF806300623ADF8083001238DF86F
S214005DB00B3000238DF80A0001A8CDE903238DF8E7
S214005DC01430FFF723FD07B030BD3C210A4A01FB23
S214005DD003235B6B5B79181E18BF0120DAE73C21B2
S214005DE0054A01FB03235B6B5B79B3FA83F040093A
S214005DF0D0E70020CEE700BFF420002030B587B003
S214005E00044645792EF03CF901282AD1E3786A1E2B
S214005E10042B26D8DFE803F00C0C0C0327003C21EB
S214005E20164B01FB02335B6B5B79003B18BF01230B
S214005E3062788DF80A308DF804204FF482720123C0
S214005E40ADF8062006228DF80B30ADF808200023AA
S214005E504FF4807201A8CDE903238DF81430FFF7C4
S214005E60D5FC07B030BD3C21044B01FB02335B6B15
S214005E705B79B3FA83F35B09DAE700BFF42000200E
S214005E8010B586B004462EF0FBF8012812D16378D0
S214005E90094A8DF804304FF48273ADF806304FF49B
S214005EA08073CDE90223002301A804938DF81430F3
S214005EB0FFF7ACFC06B010BD0800070110B586B0B1
S214005EC004462EF0DDF8012820D16278104B8DF8BC
S214005ED004204FF4827294F8A01094F8A100597030
S214005EE01870ADF8062004934FF480720223094917
S214005EF001A88DF81430CDE90212FFF787FC94F85C
S214005F00A130013B18BF012384F8A13006B010BDB4
S214005F10796400200800050110B583780446EBB1CB
S214005F200379022B07D143793C200D4A013B00FB45
S214005F3003202EF0FCF8A379022B02D12046FFF7AF
S214005F4017FF2046FFF7BAFF02236078A4F86C30EC
S214005F505522BDE8104012212EF05EB810BD00BFDD
S214005F60F42000204388094A082113808388538040
S214005F7083681B8A938090F8A03093718379D371DD
S214005F8000780430C0B2FFF7BDBA00BFA25D0020A3
S214005F9038B50D4604460178104811F0AFF84FF6B4
S214005FA002739D420CD163791BB10D4A12789A4256
S214005FB001D2012363712046BDE83840FFF7D2BF07
S214005FC0B5F57F4FF7D120462EF033F9A378022B94
S214005FD00CBF01220022A3689A70ECE736C90300C2
S214005FE063640020024B53F82000FFF7D1BF00BFC8
S214005FF0F033002038B5044600780D4D04302A46AC
S2140060000821C0B2FFF76EFA20B1BDE83840094853
S21400601011F074B82B8863806B88A380AA88A36865
S2140060201A82AB7984F8A030EB79A37138BD00BF33
S214006030A25D002050C90300F8B504460B78484A14
S2140060400D4642F823004370FFF7D4FFA268454B85
S2140060500226D364444BA11C5365444B4448136545
S214006060444B04F10C0CC2E916344FF44013E360C1
S21400607001236161E1624049103221632265211DDE
S2140060803E4AA1633E49626504F1A002A061E16355
S214006090E265E01C611D3B4A206261643A483B4968
S2140060A02266A21D2374237784F8283084F83430BF
S2140060B084F84030A16484F84C6084F8583084F842
S2140060C064306062A266E879AA6800EB400102EBE1
S2140060D08107C7F804C04FF0060C2D4F42F8217018
S2140060E0C118C9B201EB410142F821C002EB810799
S2140060F000217960274F84F880302767264F84F880
S2140061009830A767254F264BE767264F84F87460BC
S21400611084F88C60C4F89C3004F16C06831CC4F8C8
S2140061208470C4F89060204F204EDBB203EB43032C
S214006130C4F89460C4F8887002EB83067034746008
S21400614008261B4C42F82340C31CDBB203EB430378
S21400615002EB8304043042F823606160E871F8BD06
S214006160F03300209F410300E1410300195F000067
S21400617010003001E55C000001FF300104FF200143
S21400618002FF200105FF300100FF300103FF21015F
S214006190070001084A0021004A6004005100100070
S2140061A04C6004004D600400550021006F0018008C
S2140061B012000104BFF34F8F0549064BCA6802F46C
S2140061C0E0621343CB60BFF34F8F00BFFDE700BF15
S2140061D000ED00E00400FA0500239B6AB3F5804F4B
S2140061E003D21968064A914203D0002303708360E5
S2140061F07047012202709A689B694260F7E700BF09
S21400620007B0CD5E08B54FF00053024A1A60FFF79C
S214006210D1FF00BF02020FF073B5494B04461A784F
S2140062201AB102221A7002B070BDCDE90022002811
S214006230F9D001261E702EF00AF9424D424B186026
S21400624017F04CFC2B785BB900F014FD40B93F48C2
S21400625008233F4A3F49006814F03CF800B92E7006
S2140062603D4B5A68E2603D4A9A601A6E22605A6E4A
S2140062706260D3F87021A2601B6E5C0440D5384A79
S214006280D368D807FCD4374B1A68531C3DD04FF45C
S21400629080139340344A13660423334C23664FF42A
S2140062A0806323662EF002F801300ED02DF0FEFF3C
S2140062B040F20113984208D04FF4804323664FF40F
S2140062C0004323661023C4F870311023264C4FF089
S2140062D0804223664FF400536846236601A922666F
S2140062E063662DF0BEFF009B2366019B63662B78DA
S2140062F0002B98D0164B1A6822665B68636692E796
S2140063001A4AD368D907FCD4BDE7194B1B78002B73
S214006310C2D1184B5A68144B12B94FF480121A6641
S214006320154A526812B94FF400121A66134B5B688E
S214006330002BB1D14FF480020B4B1A66ACE700BFBE
S2140063407C6400207D640020283400201012002089
S2140063502C340020007108000080004455CEAC00AC
S21400636000000440D81100200090004400000450B3
S2140063707B6400200080055000C0055000000650D9
S21400638038B5224D04462B78012B02D001232B7002
S21400639038BD0028FCD02DF089FF013009D02DF043
S2140063A085FF40F20113984203D0194AD368DB07F1
S2140063B0FCD42268174B1A6662685A66A268C3F84D
S2140063C07021E268D40744BF00229A60124B1A6814
S2140063D0013213D1114A127882B911494968C807A7
S2140063E048BF1A600F4A5268D10744BF01221A609C
S2140063F00D4A5268D20744BF02221A6017F076FB95
S2140064000A4B18682EF029F80023C0E77C640020A9
S2140064100000044000800044D81100207B64002067
S2140064200080055000C005500000065028340020AB
S21400643070B50024A36AB3F5804F22D21A68124BB7
S2140064409A421ED1114E337813F0FD0517D110482D
S214006450FFF7E2FE08214FF480330E4A0E48C2F8DA
S2140064608011C36011600D4A1361AB6ADB699847FF
S21400647004460748FFF784FF0CB901233370204613
S21400648070BD4FF48174FAE707B0CD5E7B640020E0
S2140064901834002000E100E000A000440090004412
S2140064A013B5204B1B7803B9FEE700231E4CCDE93D
S2140064B000336A4608231D49206813F00BFFF0B925
S2140064C01B4AD2F84031D2F840211F2B4FF001036F
S2140064D010D9203A9340019A1A43019208236A463B
S2140064E01249206813F0ACFE4FF00053114A1A60B0
S2140064F0FFF760FE9340009A1A430092EEE70E4BB9
S2140065009842F1D10A4AD2F84031D2F840211F2BE6
S2140065104FF0010385BF203A93409340019398BF04
S2140065200093DBE77C640020101200200071080056
S214006530008000440B020FF00BE000F038B5002599
S214006540AB6A0446B3F5804F10D21B6BB3F5804F91
S2140065500CD20748FFF760FEAB6A20461B6B5B68F1
S2140065609847BDE838400248FFF70ABF38BD00BF6D
S2140065703434002013B50024A36A0190B3F5804F8D
S21400658013D21B6BB3F5804F0FD20948FFF744FEBA
S214006590A36A01211B6B01A89B699847044604481F
S2140065A0FFF7EEFE204602B010BD4FF48174F9E707
S2140065B03434002070B50026B36A0446B3F5804F25
S2140065C00D4612D21B6BB3F5804F0ED20848FFF76C
S2140065D023FEB36A20461B6B29469B6998470446F0
S2140065E00348FFF7CDFE204670BD4FF48174FAE7EE
S2140065F03434002070B50026B36A0446B3F5804FE5
S2140066000D4612D21B6BB3F5804F0ED20848FFF72B
S21400661003FEB36A20461B6B2946DB69984704468F
S2140066200348FFF7ADFE204670BD4FF48174FAE7CD
S21400663034340020F8B50027BB6A0446B3F5804F13
S2140066400D46164611D21B6B7BB10948FFF7E4FDD9
S214006650BB6A20461B6B324629465B6A984704464F
S2140066600348FFF78DFE2046F8BD4FF40174FAE7A5
S2140066703434002070B50026B36A0446B3F5804F64
S2140066800D4612D21B6BB3F5804F0ED20848FFF7AB
S214006690C3FDB36A20461B6B29469B6A984704468F
S2140066A00348FFF76DFE204670BD4FF40174FAE70D
S2140066B034340020F0B50027BB6A0446B3F5804F9B
S2140066C00D461646ADF52B7D20D21B6BB3F5804FDD
S2140066D01CD21048FFF7A0FDBB6A20461B6B4FF488
S2140066E02A7269465B6A9847044630B10948FFF744
S2140066F047FE20460DF52B7DF0BD836A32461B6BA8
S21400670029466846DB6A98470446EFE74FF401746B
S214006710EFE700BF3434002010B50024A36AB3F5B9
S214006720804F10D21B6BB3F5804F0CD20748FFF793
S21400673073FDA36A1B6B1B6B984704460348FFF761
S2140067401FFE204610BD0124FBE700BF34340020A6
S214006750F8B50027BB6A0446B3F5804F0D461646CB
S21400676013D21B6BB3F5804F0FD20948FFF754FDC9
S214006770BB6A20461B6B324629465B6B984704462D
S2140067800348FFF7FDFD2046F8BD40F20114FAE786
S21400679034340020F8B50027BB6A0446B3F5804FB2
S2140067A00D46164613D21B6BB3F5804F0FD2094821
S2140067B0FFF732FDBB6A20461B6B324629469B6BB1
S2140067C0984704460348FFF7DBFD2046F8BD40F235
S2140067D00114FAE73434002070B50026B36A044684
S2140067E0B3F5804F0D4612D21B6BB3F5804F0ED219
S2140067F00848FFF711FDB36A20461B6B2946DB6B82
S214006800984704460348FFF7BBFD204670BD40F29C
S2140068100114FAE73434002070B5D0B1C9B10E4E79
S214006820431E013913F8014F2046325D02F0030281
S214006830012A11F8012F08BF04F12000B55C05F00D
S2140068400305012D08BF2032801A01D1002CE9D1A2
S21400685070BD0120FCE700BFD58704000346054A4B
S2140068600549106803448B428CBF4FF0FF3013601D
S214006870704700BFDC110020000001200348044AD6
S2140068800449121A92102DF076BD00BFCCB4040055
S214006890CCB40400F067002008B500F02FF8FFF72E
S2140068A0EDFF124B12498B4212D30020114B1249B6
S2140068B08B4218D3FEF730F9186850F82240586813
S2140068C040F82240013298688242F5D30C33EAE75A
S2140068D00022F8E71C6844F8220001325C68A242F5
S2140068E0F8D30833E4E70022F8E700BFBCAC0400A6
S2140068F0C8AC0400C8AC0400C8AC04006FF00100CB
S214006900104B114A10B59A60D3F888200F4942F40C
S2140069107002C3F8882001F50052106641F2FF703D
S21400692050660220C3F8D000BFF34F8FBFF36F8FBF
S21400693008244FF440330648C0F88041D360046012
S2140069400B6110BD00ED00E0004000000080004438
S21400695000E100E0014B1868704700BFE41100201A
S214006960014B1860704700BFE4110020084B1B6FF6
S21400697003F00703022B04D0032B05D0012B05D010
S214006980FEE7044B18687047034BFBE70348704765
S21400699000800050E4110020EC110020002D310191
S2140069A008B5FFF7E3FF054B1B6FC3F30133013355
S2140069B0B0FBF3F0024B186008BD00BF008000502B
S2140069C0E01100200048704700B4C404014B18686A
S2140069D0704700BFEC110020054B1860054B1B6F7D
S2140069E003F00703032B01D1FFF7DABF704700BFA0
S2140069F0EC1100200080005000487047002D310147
S214006A00174A9368C3F304430C2B0AD8DFE803F055
S214006A100B0909090909072119091B1D1F0011483F
S214006A20704700207047936803F04073B3F1807F8F
S214006A3011D0B3F1007F10D0002B0B4818BF0020F8
S214006A4070470A4870470A4870470A4870470A481D
S214006A5070470A4870470A4870470A48704700BFA0
S214006A600040015A405DC60000093D00C0EA210111
S214006A7080BA8C010048E801005A62020024F40043
S214006A8080841E0040420F00014B1868704700BF0C
S214006A90E8110020184B2DE9F0411F6D5B6D1F407B
S214006AA000D5FEE701260025144CDFF85880374253
S214006AB018D02368C8F85060A3B1A16828460131F1
S214006AC06268A1609847637B012B0BD150B90C4BD1
S214006AD003EB45131A7B60F341021A731A7F60F3C7
S214006AE041021A770135082D4FEA460604F11004D4
S214006AF0DDD1BDE8F08100BF000004504435002021
S214006B00443400200020045070B5044601250B4E86
S214006B1004B970BD94FAA4F0B0FA80F005FA00F358
S214006B2006EB001224EA03045368002BF0D0117B16
S214006B3011B191689847EBE79847E9E7C43500201C
S214006B4008B5192000F038FD28B14FF00072074B49
S214006B50C3F880211A601A2000F02EFD28B14FF0ED
S214006B608062024BC3F880211A6008BD00E100E095
S214006B70F8B504460D4617461E462DF068FC1CB9AF
S214006B80052D13D0FF241AE0012C03D1012DF9D1D5
S214006B9003240BE0022C04D1ADB1052DF2D107245D
S214006BA004E0032CEED1022DECD10924074904F1B0
S214006BB0100301EB03110123C1E901760B732DF0DD
S214006BC04CFC2046F8BD0624F0E700BFC435002084
S214006BD0F8B505460E4617462DF039FC134B2C46E5
S214006BE0D3F8242405F0FC0122FA05F3DB0712D5BE
S214006BF000230133DBB2042B04D1FF242DF02DFC3F
S214006C002046F8BDEC1804F003040C4422FA04FCF9
S214006C101CF0010FEDD1FF2CF0D00122044B03EB4A
S214006C200413C3E901671A73E8E700BF00C0035006
S214006C30C4350020064BD3F82404D3F8202403F5EB
S214006C400053104000F05530C3F82004FFF75CBF37
S214006C5000C00350064BD3F82404D3F8202403F5D1
S214006C600053104000F0AA30C3F82004FFF74CBFD2
S214006C7000C00350024B1968024B186813F006BA9E
S214006C80F01100201012002070B594002246054630
S214006C900E4635F0D5FC431C0AD058B9224631467C
S214006CA0284611F06DFF0028034808BF002070BD7D
S214006CB00248FCE70248FAE710E000F021E000F0A6
S214006CC024E000F010B5044635F0B6FC431C10D0A6
S214006CD088B900F027FE234620F00300204498429F
S214006CE001D1002010BD53F8042B0132F7D0034821
S214006CF0F8E70348F6E70348F4E700BF0EE000F0C5
S214006D0021E000F024E000F008B52DF095FB014BE3
S214006D10186008BDB43E0020014B18682DF090BBEB
S214006D20B43E002041F6713210B5104C104BA04214
S214006D3094BF00240124D969DA639A6801F480318B
S214006D4022F4401242EA04529A600A4A90420A4AE0
S214006D50D2F818028CBF40F0020020F00200C2F801
S214006D60180209B10022DA6310BD00BF005A6202A1
S214006D700000035080F0FA0200C007502E4B9842E5
S214006D804AD022D82D4B984240D014D82C4B98424B
S214006D9039D00AD82B4B984232D02B4B98422FD062
S214006DA02A4B98422CD000207047294B9842FAD1A3
S214006DB0284B186F7047284B98422AD0274B98428A
S214006DC0F1D1244BD3F880007047254B98422BD046
S214006DD009D8244B984223D0234B9842E3D11D4B2D
S214006DE0D3F88C007047214B984221D003F57403EA
S214006DF003F510539842D6D1164BD3F89800704737
S214006E00144B986D7047134B586E7047114B586F64
S214006E107047104B986F70470E4BD3F8840070473E
S214006E200C4BD3F8880070470A4BD3F89000704795
S214006E30084BD3F8940070470048E8010024F4009B
S214006E40C0CF6A0080841E0000093D0040420F004B
S214006E50405DC6000080E00FC0EA210180BA8C01C8
S214006E60007E560380D54302006CDC020090D003FF
S214006E7038B5134B0546D3F820010C4600F0070042
S214006E8004281AD8DFE800F003090D1115000123C5
S214006E9005B1286004B1236038BDFFF75BFD04230D
S214006EA0F6E7FFF793FD0323F2E7FFF7A9FD0523B7
S214006EB0EEE7FFF7A1FD0223EAE700231846E7E71F
S214006EC00080005037B50C460021114B0191D3F8D5
S214006ED08031054603F00303022B0ED0032B11D09E
S214006EE0012B03D101A8FFF7C3FF0D210DB1019BB4
S214006EF02B6004B1216003B030BDFFF781FD052192
S214006F000190F3E7FFF778FD02210190EEE700BF5E
S214006F100080005038B5104B0546D3F840310C467B
S214006F2003F00303022B0BD0032B0DD0012B0FD144
S214006F302DF02EFA082305B1286004B1236038BD71
S214006F40FFF7A2FD0723F6E72DF025FA0923F2E75F
S214006F5001230020EFE700BF0080005038B5104B3B
S214006F600546D3F860310C4603F00303022B0BD022
S214006F70032B0DD0012B0FD12DF00AFA082305B1F3
S214006F80286004B1236038BDFFF77EFD0723F6E7CF
S214006F902DF001FA0923F2E701230020EFE700BFF6
S214006FA00080005038B5144B0546D3F800020C4656
S214006FB000F0070004281BD8DFE800F003090D11D5
S214006FC01500012305B1286004B1236038BD2DF0FB
S214006FD0DFF90823F6E7FFF757FD0723F2E72DF062
S214006FE0DAF90923EEE7FFF7DBFC0C23800AE9E772
S214006FF000231846E6E700BF0080005038B5144B63
S2140070000546D3F808020C4600F0070004281BD8F3
S214007010DFE800F003090D111500012305B1286013
S21400702004B1236038BD2DF0B3F90823F6E7FFF767
S2140070302BFD0723F2E72DF0AEF90923EEE7FFF765
S214007040AFFC0C23800AE9E700231846E6E700BFFA
S2140070500080005038B5104B0546D3F840320C4639
S21400706003F00303022B0BD0032B0DD0012B0FD103
S2140070702DF08EF9082305B1286004B1236038BDD1
S214007080FFF702FD0723F6E72DF085F90923F2E75F
S21400709000231846EFE700BF0080005038B5104BBD
S2140070A00546D3F800310C4603F00303022B0BD041
S2140070B0032B0DD0012B0FD1FFF788FC032305B15E
S2140070C0286004B1236038BDFFF7DEFC0723F6E72F
S2140070D02DF05CF90623F2E701230020EFE700BF5E
S2140070E000800050032814D005D8012805D00228B7
S2140070F009D0002005E00F28FBD1084B186FC0F31D
S214007100013001307047054BD3F89000C0F304609F
S214007110F7E7024B186FC0F38020F2E700800050BC
S2140071201FB500230193252817D8DFE800F0131AAF
S2140071301D272C363B51565B60656A78161A40163A
S21400714016561A272C27361A5127783B3B3B3B27E7
S21400715027275B60FFF70AFC0190019805B05DF8F1
S21400716004FBFFF71DFCF7E7FFF700FC02460220D2
S214007170FFF7B8FFB2FBF0F20192EEE7FFF710FC64
S21400718002460320F4E7FFF70BFC02460320FFF756
S214007190A9FFB2FBF0F25208EEE7002101A8FFF7C4
S2140071A091FEDAE7002101A8FFF762FED5E7029319
S2140071B04FF0E0231B695B0705D5FFF7F1FB029054
S2140071C0029B0193C9E703A902A8FFF7A3FEF7E70E
S2140071D0002101A8FFF79EFEBFE7002101A8FFF7E8
S2140071E0BDFEBAE7002101A8FFF7DCFEB5E70021E7
S2140071F001A8FFF703FFB0E7002101A8FFF74EFF45
S214007200ABE7094BD3F8803003F00303022BA8D07A
S214007210032B01D000209FE7FFF7F2FB9CE700213D
S21400722001A8FFF717FF98E70080005008B5012077
S214007230FFF776FFBDE808400349884294BF012166
S2140072400221032000F002B880F0FA02032810B5ED
S2140072500C4627D004D8012804D0022817D010BD29
S2140072600F28FCD12DF0CBF82DF0D1F8124A013CB6
S214007270136F23F4405343EA04331367FFF790FB7E
S2140072800021FFF74FFDBDE81040FFF7CFBF0A4AC9
S2140072904C1ED2F8903023F0F85343EA0463C2F849
S2140072A09030DCE7044A4C1E136F23F4806343EAF5
S2140072B084231367D3E700BF008000501FB5002368
S2140072C00193252821D8DFE800F013202020202A6B
S2140072D02F454A4F54595E7120203420204A2020E2
S2140072E020202A204520712F2F2F2F2020204F547A
S2140072F0314B1B6F03F00703013B032B05D8DFE878
S21400730003F00C02080A04230193019805B05DF807
S21400731004FB0323F8E70623F6E70223F4E700203E
S21400732001A9FFF7CFFDF0E7002001A9FFF7A0FDB8
S214007330EBE702934FF0E0231B695B0705D5FFF7E9
S2140073402FFB0B230393039BDEE703A902A8FFF79B
S214007350E1FDF8E7002001A9FFF7DCFDD5E70020F6
S21400736001A9FFF7FBFDD0E7002001A9FFF71AFEF1
S214007370CBE7002001A9FFF741FEC6E7002001A9E0
S214007380FFF78CFEC1E70C4BD3F8803003F0030305
S214007390022B03D0032B05D00023B5E7FFF700FB35
S2140073A00B23B1E7FFF72CFB0523ADE7002001A96F
S2140073B0FFF750FEA9E700BF0080005038B505462D
S2140073C0FFF7DCFC204B04465A68012A04D11F490B
S2140073D04A609A699207FCD10020FFF76FFF0428E5
S2140073E003D12DF00CF82DF012F8194A24F0407352
S2140073F095421FD0174A95421FD0174AD16811F000
S214007400060FFBD19068936091684B4013F4F81F09
S21400741016D12846FFF7A4FA0020FFF74FFF0428EE
S21400742010D1FFF7BDFA0021FFF77CFCBDE838401D
S214007430FFF7FCBE43F00073DFE743F08073DCE742
S2140074409060E9E738BD00BF00C0015000E0015081
S21400745040420F0080841E000000015070B50446B4
S2140074600020FFF72BFF03287CD045F60E030221F1
S214007470414AC2F88030414B9962012103F580539E
S2140074809962936DD903FCD4D4E900131B0543EA33
S2140074900163E17B94F823500B43217B43EA0143CD
S2140074A0617B43EA0133A17B43EA8113136191694F
S2140074B0D4E904031B0643EA806301F000410B4352
S2140074C0A17EE07E0B43217E43EA0143617E43EAD0
S2140074D001239361E169136A002923F00D0343EA4F
S2140074E0010314BF0121002143EA800343EAC103DC
S2140074F0136294F8203094F82200916A4FEA4313FE
S21400750031D194F8216021F0330143EA06130B438E
S21400751043F0010393621A49174A936D31EA030355
S214007520FBD10221154B9962936D5B00FCD4136965
S214007530A16823F4700343EA015313614FF000423D
S2140075400E4B9A6118B9022203F580539A6215B958
S21400755001220C4B9A6294F824301BB1064B0A4A5F
S214007560C3F8802070BD21F0330129430B4343EA62
S21400757040039362EFE700BF00C0005000D0005009
S2140075800300014000E00050F1A7FFFF014B93F914
S214007590000070477E640020014B1880704700BFD3
S2140075A034160020034B5868C0F30800003818BF94
S2140075B00120704700ED00E0054B420953F82230E9
S2140075C000F01F0023FA00F0C04300F001007047EF
S2140075D000E100E00C4A10B51369044643F00403CA
S2140075E0136102F0A9FF2CF03BFF084B084AC3F8D2
S2140075F0202430BF2CF035FF02F0C0FF1CB9BDE8D8
S2140076001040FFF7CDB910BD00ED00E000E00350DC
S2140076100000FFFF0A4A10B51369044643F004034E
S2140076201361084B084AC3F8202402F085FF30BFD8
S21400763002F0A4FF1CB9BDE81040FFF7B1B910BDB9
S21400764000ED00E000E003500000FFFF034A017970
S214007650D36E23F030030B43D366704700400050D0
S214007660072A2DE9F0410D46144698460FD8032602
S2140076709700BE4000FA07F2314615482CF0F4FE9B
S21400768005F0030231461348BA402CF0EDFE124BCB
S21400769012499DF81800B8F1000F18BF19460123CB
S2140076A003FA04F40C600E4B0E49002818BF0B4674
S2140076B01C600D4B9DF81C00C3F82044103103F2EB
S2140076C02443002818BF0B461C60BDE8F08100BFAD
S2140076D000C4035008C4035010D4035010E40350F1
S2140076E014E4035014D4035000E00350F8B50446E5
S2140076F00D461F4616464AB101238B403021184AD4
S21400770001FB0022F7B141F21001535004EB440391
S214007710072D4FF00F014FEA031316D8A80006FAFC
S21400772000F281400F4818442CF09EFE4EB901230B
S21400773030210B4AAB4001FB042277B141F2100125
S2140077405350F8BD42F21001DFE7A5F108008000B3
S21400775006FA00F281400448E5E742F21001EFE73E
S21400776000C0035004C003500CC003503022064B28
S214007770072902FB00338ABF08395868D868890091
S214007780C84000F00F00704700C0035010B50C4B07
S2140077900C4C0D4A0140C4F83004C3F83014C3F84A
S2140077A02C04D36E03F03003202B1FBFD36E23F0C0
S2140077B0300343F01003D366C4F8200410BD00BFA6
S2140077C000D0035000E003500040005038B5144687
S2140077D01D46032283F00103FFF788FF012004F112
S2140077E01001884005FA01F1FFF7D0FF9DF8101050
S2140077F0034B044A002918BF1346186038BD00BF63
S21400780024E4035024D4035041F67132034BDA6368
S214007810012203F50053DA60704700BF00000350F2
S21400782041F671320121044BDA6303F50052D16050
S2140078300022DA63704700BF00000350014BD3F804
S2140078409400704700400050CB784A7810B55B0132
S2140078500C7843EA82030A79234343EA02130C2294
S214007860424302F1B0421363012C02BF8A78024BF6
S21400787043F8202010BD00BFD080035008B54FF05D
S214007880B0435A6802B960B15B680BB12CF001FED8
S2140078904FF0B04130B10120074B58602CF0F9FD95
S2140078A0C86008BD2CF0F5FD0223CB602CF0F1FD7E
S2140078B00122024B5A60F4E70010005800200058DE
S2140078C04FF0B0414B6810B50BB12CF0E2FD012231
S2140078D00B4BC4785A608378934043EA8403447819
S2140078E02343047943EA0413447943EAC4038B60D0
S2140078F0044B5A600378C3F10203CB6010BD00BF8F
S2140079000020005800100058054B5B69C3F3851231
S214007910827003F03F021B0B42700370704700BF7B
S21400792000C007500120034B9B680A3303F01F0377
S214007930984070470080E00F38B50446054D31F09A
S2140079404DFC0FCC0FC594E80F0085E80F00002013
S21400795038BD00BFB83E002047F6FF739A42F0B528
S2140079606CD002296CD8374B5B5C022B68D8364D3E
S214007970DE0005EBC304A17815F83330012938BFC3
S2140079800121012B13D10025E078401AA84202D825
S2140079900844C0B2F0BD431B6668A0EB530336F93B
S2140079A013609642D4BF1D4603F1FF30EEE76068D1
S2140079B00028EFD0B0F90040944204DBB0F9024052
S2140079C09442B8BF144683883544FF2B19BFC8239A
S2140079D02827B0F90630B0F90870A3EB04030CBFF3
S2140079E00122002293FBF7F36E7813441BB29E42EB
S2140079F001DD002B01DA731E1BB24FF47A7C00EB1C
S214007A00C305EA88AD685F1C14FB02521D4622EAD5
S214007A10E2723BB25C329E42B2FBFCF204DD00EB4B
S214007A20C307BF889742EAD200EBC5039888904206
S214007A3028BF1046884238BF0846AAE7FF20A9E7B5
S214007A400020A7E7C1600400B83E00200229F0B578
S214007A5060D8314B595C02295CD8304B13F83100A2
S214007A60012816D103EBC1039C78D878012C214657
S214007A7038BF0121904294BFC1EB0001C1EB020167
S214007A80001BCAB28242C8BF00225B6833F91200EC
S214007A90F0BD002A3CD003EBC1035968002939D059
S214007AA09878904202D3B1F90200F1E7DC78B1F998
S214007AB000009442ECD95C788B88013CA3F1FF0669
S214007AC0734201F10405E4B2734101F10C07DEB222
S214007AD0B44216D805EBC3034FF47A756A43B3F97C
S214007AE002405B68D21A04EBD47302EB630292FB8B
S214007AF0F4F29042CCDBB1F902009042C8DC10B23E
S214007B00C6E737F833C05E1C9445E3D33346DEE75A
S214007B100348BDE70348BBE7C1600400B83E002049
S214007B200CFEFFFF0080FFFF08B50448FFF704FFC8
S214007B30BDE80840012031F076BB00BFC4600400F9
S214007B407FB51422002101A810F026FC044B01A9E1
S214007B504FF0FF30029331F096FB07B05DF804FB60
S214007B60006A18002DE9F0418CB08846DDE91276EF
S214007B701D460446002847D0002945D0002F43D094
S214007B80002E41D013F00F033ED120482049A360B9
S214007B90002A08BF0146E361C4E90013404609A96C
S214007BA02CF07CFD68BB204609992CF08EFC2946FB
S214007BB020462CF08AFC694640462CF0FDFD00BBB2
S214007BC0694620462CF06DFC404603A92CF0FFFDCC
S214007BD0B8B9204603A92CF064FC06970127204676
S214007BE045F0005506A9079708952CF05AFC204644
S214007BF009A909960A970B952CF05DFC20462CF0F7
S214007C00D9FC0CB0BDE8F0812120FAE700010004A1
S214007C10000101042DE9F04F97B0894690461F46B3
S214007C200546DDF880A0002800F0BB80002900F0A3
S214007C30B8803AB1229B002B00F0B380239B002B28
S214007C4000F0AF80BAF1000F00F0AB80219B002B54
S214007C5000F0A78067B13C680026229B434402934D
S214007C60464507D307B13C60002017B0BDE8F08F4B
S214007C703C46F1E75CB1229B219A9B5D125D013484
S214007C805340239A04F00F0493550136E8E7A8EB17
S214007C90060BBBF10F0F58D9434B4846C5E90034D5
S214007CA0AC60EC6113A92CF0F9FC0028DDD1284665
S214007CB013992BF00F0B2CF008FC594628462CF095
S214007CC004FC484604A92CF077FD0028CDD12846B0
S214007CD004A92CF0E6FB484607A92CF078FD0028FE
S214007CE0C3D1284607A92CF0DCFB012322992F4A92
S214007CF0CDF828A00B930C928A190D9228464BF0CB
S214007D0000520AA90E9303920F922CF0CAFB284643
S214007D100DA92CF0C6FB239B039A991901231091F9
S214007D2011931292214A284610A9CDF84CA014931C
S214007D3015922CF0C0FB284613A92CF0BCFB284655
S214007D402CF038FC5E4400288FD1229B03EB060BF8
S214007D50239B1E44029B9B4501D1464680E7ACB957
S214007D60219B2246CDE900A3494610232846FFF76B
S214007D70F9FE00287FF479AF0AF1100212F8013DEF
S214007D800133DBB213700BB95245F7D1219A1BF8B9
S214007D90013B125D0134534006F8013B04F00F042A
S214007DA0D8E7212061E700BF03030004100000208D
S214007DB02DE9F04F97B0884615469A460446209F10
S214007DC0DDF88890DDF890B0269E002800F0A380AD
S214007DD0002900F0A0801EB1259B002B00F09B80A0
S214007DE0BAF1000F00F09780B9F1000F03D0219B85
S214007DF0002B00F090803DB1239B002B00F08B8081
S214007E00BBF1000F00F08780C7F10F03DBB2032B36
S214007E1005D80122DB0002FA03F3AB427BD9022E1F
S214007E2079D0102E77D816F0010374D1FA1F062ADF
S214007E3071D83A4A0BEB050191426CD2384A40465B
S214007E40C4E90023A360E36113A92CF027FC0028F3
S214007E505ED1204613992CF038FB204646EA0741AF
S214007E602CF033FB494620462CF02FFB29462046B3
S214007E702CF02BFB404601A92CF09EFC002847D195
S214007E80204601A92CF00DFB404604A92CF09FFCCF
S214007E9000283DD14FF00108204604A92CF001FB34
S214007EA0239B45F000550793219BCDF82080204664
S214007EB009950DA90A9347F0005749F00053CDF8ED
S214007EC02C800C93CDF834A0CDF838800F972CF08A
S214007ED0E8FA20460AA92CF0E4FA204607A92CF076
S214007EE0E0FA259B204610A946F00056CDF840B093
S214007EF0CDF8448012951393CDF8508015962CF04B
S214007F00DAFA204613A92CF0D6FA20462CF052FBBB
S214007F1017B0BDE8F08F2120FAE700BF00800120EF
S214007F20000005042DE9F04F99B0884615469B469B
S214007F300446229FDDF89890289E002800F0B9801D
S214007F40002900F0B680279B002B00F0B280BBF122
S214007F50000F00F0AE80249B1BB1239B002B00F08B
S214007F60A8803DB1259B002B00F0A380B9F1000F3F
S214007F7000F09F80C7F10F03DBB2032B06D8012267
S214007F80DB0002FA03F3AB4240F29380022E00F0CD
S214007F909080731E0F2B00F28C8016F0010A40F0C2
S214007FA08880FB1F062B00F28480434B09EB0502FA
S214007FB09A427ED2414B4046C4E9003AC4F808A033
S214007FC0C4F81CA015A92CF069FB034600286CD148
S214007FD0204615992CF079FA204646EA07412CF0FF
S214007FE074FA204624992CF070FA294620462CF084
S214007FF06CFA404603A92CF0DFFB0346002854D158
S214008000204603A92CF04DFA404606A92CF0DFFBCB
S2140080100346002849D14FF00108204606A92CF057
S21400802040FA259B2046099345F00053CDF828805A
S21400803001930B93239B0FA90C93249B47F00057A7
S21400804043F00052CDF834800E92CDF83CB0CDF817
S214008050408011972CF025FA20460CA92CF021FA26
S214008060204609A92CF01DFA019B204612A9CDF83E
S2140080704890CDF84C8014932CF01DFA279B204690
S21400808015A946F000561593CDF8588017962CF093
S21400809008FA20462CF08EFA034630B101902A46A4
S2140080A05146484610F078F9019B184619B0BDE8CD
S2140080B0F08F2123F9E700BF0080012000000604AE
S2140080C07FB50E461D460446F0B102B9E3B901235A
S2140080D00192029345F00053039300230B4AA360DA
S2140080E0C4E90023E361204601A92CF0DAF9314601
S2140080F020462CF0EAF9204629462CF0E6F92046E0
S2140081002CF058FA04B070BD2120FBE700000943AC
S21400811030B5048804F4E043B3F5005F30D104F4CE
S214008120E063B3F5806F2BD181F0AA6383F480738C
S21400813033F47E1306D081F0AA6383F4007333F41D
S2140081407E1326D1C1F30543164D21F47E11A942B4
S21400815021D1B4F5105F1ED1418821F0400080285F
S21400816002D0B1F5807F19D1191F0C2916D8DB076C
S21400817014D4073A062A8CBF6FF08600002030BD64
S21400818042F204039C4204D181F0052383F4801359
S214008190D5E70023D8E76FF08500F0E76FF086009C
S2140081A0EDE700BF000140052DE9F04F9BB081468A
S2140081B0DDE928761D468B46DDF8A880DDF8BCA0F4
S2140081C0099241B138B1249B2BB1269B0BB9279B52
S2140081D00BB91FB94EB16FF0860480E02EB1B8F12E
S2140081E0000FF8D02B9B002BF5D02C9B002BF2D049
S2140081F0BAF1000FEFD02E9B002BECD02D9B002B5E
S214008200E9D0B9F8003003F4E042B2F5005F6AD175
S21400821003F4E062B2F5806F65D185F0AA6383F45B
S214008220807333F47E1306D085F0AA6383F400735C
S21400823033F47E1360D1C5F3054329464846259A94
S214008240CAF80030FFF764FF0446002847D101460D
S21400825020220AA810F0A0F82022214612A810F02A
S2140082609BF80AA82CF0B9F9002855D1594648467B
S214008270099A12AB2CF008FB044600282FD12B9B42
S2140082809E424CD8DAF800302E9A934247D847459B
S21400829008D2BB19984505D239463246404610F0FA
S2140082A071F947461F4B25F47E159D4226D1DAF814
S2140082B00030324606932D9B0397CDE90483279B17
S2140082C012A90293269B0AA80193259B0093249B40
S2140082D0FFF76EFD212819D0D8B92C9B1E602046CA
S2140082E01BB0BDE8F08F42F20402934204D185F041
S2140082F0052383F480139BE700239EE76FF0880432
S21400830000232C9A1360CAF80030E8E76FF0860462
S214008310F6E76FF09204F3E76FF09204DFE76FF092
S2140083208904DCE7000140052DE9F04F99B08A4644
S214008330DDE926659346984681462A9F28B96FF060
S2140083408604204619B0BDE8F08F0029F7D0229B9E
S214008350002BF4D0249B13B9259B002BEFD10EB92C
S214008360002DECD117B92B9B002BE8D12C9B002BB2
S214008370E5D0289B002BE2D041464846239AFFF7DB
S214008380C7FE04460028DCD1202201460DEB020081
S21400839010F002F82022214610A80FF0FDFF08A8D2
S2140083A02CF01BF910B16FF09204CAE75A465146FA
S2140083B0484610AB2CF068FA04460028C1D12B9B27
S2140083C09D422AD8BE4208D273199F4205D2314632
S2140083D02A46384610F0D6F83E46144B28F47E1847
S2140083E098451DD1299B2A460693289B0396CDE9DE
S2140083F00473259B10A90293249B08A80193239B32
S2140084000093229BFFF78EFD212898D02C280AD0B7
S2140084100028C8D12C9B1D6093E76FF0890490E775
S2140084206FF088048DE76FF094048AE7000140053A
S214008430084B984202D0084B984207D10B88B3F5F8
S214008440105F14BF6FF08500002070476FF0850046
S214008450704700BF004440040013C00410381028C2
S21400846008D8064BC34013F0010F0CBF6FF0860010
S214008470002070476FF08600704700BF01010100C2
S2140084802DE9F04FA5B008AFCDE90501DDE930953F
S214008490DDE9326A00210792384610229846DDF858
S2140084A0D0B00FF079FF102200210CA80FF074FF57
S2140084B0069B2BB96FF08604204625B0BDE8F08FEA
S2140084C0079B002BF6D0B9F1000F01D1002DF1D19A
S2140084D02E9B13B92F9B002BECD116B9BAF1000FC7
S2140084E0E8D1BBF1000FE5D040460599FFF7A0FFA5
S2140084F004460028E0D10146202214A80FF04CFFC5
S214008500202221461CA80FF047FF14A82CF065F87F
S214008510002840F0AF80DDE9061205981CAB2CF071
S214008520B3F904460028C7D11C98FFF797FF044606
S2140085300028C1D115B9CBF80000BDE7B14518D267
S21400854009EB05039E4214D25545B3D82A46494640
S214008550304610F017F8554B984526D006D3544BA6
S214008560984524D003F54073984520D06FF08504D5
S214008570A2E74F4B98451BD003F54073984517D09C
S2140085804A4B9845F2D1554594D815F00F0291D133
S2140085902B46CDE900961CA914A8FFF7E3FA8146FE
S2140085A000285CD1CBF8005086E7B146EDE7B1462F
S2140085B01022002110A80FF0EFFE55453FF67AAFC7
S2140085C03C4B98452F9B39D10D2B7FF473AF01237D
S2140085D08DF840302E9B0DF1410203F10C0153F84B
S2140085E0040B8B4242F8040BF9D11B78137001235D
S2140085F08DF84F3015F00F0842D025F00F034B448E
S2140086000DF1300C03F1100E6246186859680833F5
S21400861003C273459446F7D10F2D33D825F00F03C8
S214008620334403930CABCDE9017310AB0093424681
S21400863000231CA914A8FFF7EDFAB0E7102B7FF46F
S21400864039AF2E9B10AA03F1100E9446186859688D
S2140086500833ACE8030073456246F6D1CAE75246D3
S214008660002130460FF098FE0023B9F1010FCBF839
S214008670003002D06FF092041EE76FF08B041BE709
S2140086800F2D8FD910ABCDE90296009301970023EA
S21400869025F00F021CA914A8FFF7BCFA8146002893
S2140086A0DDD1B8F1000F3FF47DAFB7E700444004DA
S2140086B00010C0040013C0042DE9F04F8A469FB096
S2140086C00021DDE92856DDE92A790590934606A8BB
S2140086D0102298460FF060FE102200210AA80FF024
S2140086E05BFEBAF1000F05D16FF0860420461FB07E
S2140086F0BDE8F08FBBF1000FF6D00DB9002EF3D118
S21400870017B9B9F1000FEFD12C9B002BECD04046E7
S2140087100599FFF78DFE04460028E7D10146202282
S2140087200EA80FF039FE2022214616A80FF034FEC0
S2140087300EA82BF052FF002854D15A4651460598F1
S21400874016AB2CF0A1F804460028CFD11698FFF7F8
S21400875085FE04460028C9D116B92C9B1860C5E7CB
S214008760BD4216D2AB199F4213D24E45BCD83246F4
S214008770294638460FF006FF3A4B98455BD003F57E
S2140087804073984531D0384B984511D06FF085042A
S214008790ACE7344B98454FD003F54073984525D049
S2140087A0314B9845F2D14E4503D96FF089049DE7C9
S2140087B03D46330798D133460122CDE9005716A926
S2140087C00EA8FFF7CFF92C9B05461E6000288DD01B
S2140087D04A46002138460FF0DFFD00232C9A012D73
S2140087E013603BD06FF0920480E73D460D3E4E4549
S2140087F0DBD801238DF828302B460DF1290205F130
S2140088000C0153F8040B8B4242F8040BF9D11B7889
S2140088100D3513704FF48073ADF8363006AB019308
S2140088200AAB009332460023CDE9025716A90EA8DC
S214008830FFF7F0F9C7E73D46103E4E45B5D82B4644
S2140088400DF1280C05F1100E6246186859680833B9
S21400885003C273459446F7D11035DFE76FF08B04FB
S21400886044E700BF0010C0040044400410B54FF4B5
S2140088702F72002104460FF08FFD8023C4F88C3041
S214008880054B04F19C00C4F88430012384F888303A
S214008890BDE810402BF033BD79C9030010B5D0F801
S2140088A0A0400A4684B92CF005FA044610B9002404
S2140088B0204610BD2D2896BF064B074953F82010BA
S2140088C006482CF03DFBF3E7D0F8A4101046A0476E
S2140088D0EDE700BFB06104007CC903002327040055
S2140088E0F8B590F88060044616B100263046F8BD0C
S2140088F02CF013F80028F8D1012384F8803094F87F
S214008900883033B1D4F88410194884F888602CF085
S21400891017FB4FF0FF37D4F8B402421C1CD0C4F843
S214008920B47210F0FF0520D020462BF0F3FF294646
S214008930204600F095FB0028EDD020462BF0F8FFEF
S21400894094F888306BB1D4F8841009482CF0F8FA03
S214008950002384F8883004E02CF0D7FA431CE0D1DA
S2140089600126002384F88030C0E70126D3E700BF45
S214008970BFE50300F8B50B780446302B0D461646C7
S21400898004D14B7803F0DF03582B11D0284F6A1E12
S21400899012F8011F002934D128460A220FF0ECFBFA
S2140089A0202C03460D4631D1B1FA81F040091AE079
S2140089B04A1C1F4912F8013F8BB928460FF0E8FB06
S2140089C01C4B02382340032B12D10134A4108442DE
S2140089D00AD1A87837288CBF0020012003E0CB5CA2
S2140089E013F04400E6D1F8BDCCBF01200020FAE722
S2140089F0002CB8BF0334B0EBA40FD4BF0120002076
S214008A00F1E77B5C13F00400C2D1ECE726B1084323
S214008A1002D0013B61F100050122A240013A1A4052
S214008A20002D08BF9A420CBF01200020DBE700BFE4
S214008A30D587040003000080F0B5037801467B2B41
S214008A4017D10646022400220B4F16F8015F7D2D33
S214008A5005D10B5D6BB9D24302F0010008E07B5DE7
S214008A6013F0440002D001320134EEE7202DFBD093
S214008A70F0BD0020FCE700BFD587040070B50646B1
S214008A800D460FF085FB044630462CF059FA044E8E
S214008A90AC4200D370BD30462CF052FA0134F7E7F2
S214008AA0B7DC03002DE9F84F044602215148FFF7D2
S214008AB0E5FF1E212068FFF7E1FF636858682CF089
S214008AC03FFA4D482CF03CFA67683B7BFD2B12D8EA
S214008AD0D7F808804FF0FF3640460FF059FB0546A2
S214008AE0DFF81091DFF870A1DFF84CB10C3717F8FB
S214008AF0013BFF2B01D1BDE8F88F212B18D8212B85
S214008B0036D8DFE803F0377274111B1D1F21353588
S214008B10353535353535232527292B2D2F31353558
S214008B203535353535353D33344C002D2BD12EE0DB
S214008B30334C344AFE2B08BF1446F6E7324CF4E7B3
S214008B40324CF2E7324CF0E7324CEEE7324CECE7D0
S214008B50324CEAE7324CE8E7324CE6E7324CE4E7E0
S214008B60324CE2E7324CE0E7324CDEE7324CDCE7F0
S214008B70234CDAE7314CD8E72CF0D6F901362AE058
S214008B80002DB4D02E4C202B06F10106AFD00221CA
S214008B904846FFF773FF1E214846FFF76FFF504613
S214008BA02CF0CEF9594620460FF0F4FE2549002851
S214008BB018BF214624482CF0C3F93B78202B02D15D
S214008BC02B202CF0B1F921482CF0BAF94DB118F849
S214008BD006301F2B05D018F806001F2801D0AE421D
S214008BE0CADB05482CF0ACF981E7194C9DE7194C17
S214008BF09BE700BFD51A04007EC803001FCA030007
S214008C0031CA0300CAEB03007CCA030083CA030010
S214008C1074CA030070CA030067CA03005DCA030073
S214008C2053CA030068CA03005ECA030054CA03009E
S214008C3049CA030042CA030039CA03001ECA030019
S214008C4024CA03002FCA0300BFE5030055D703005C
S214008C507BCA030082CA03001BED03002DE9F04F18
S214008C609BB005468B460024009203930FF090FAC3
S214008C70249F039B04901C6028463C600AAA09A90E
S214008C802CF07FF9064658B90A980FF081FA344658
S214008C90B046039B1860D5F89C300293029B1BB924
S214008CA020461BB0BDE8F08F029BD3F80890B9F1C0
S214008CB0000F6CD02E4416F8013B202B11D0002656
S214008CC00C23734309EB030A59F803300193002B76
S214008CD058D0099B434555DB9AF808202AB1721CE8
S214008CE039E03B6801333B60E5E73968D5F8942006
S214008CF00793039B521A1A601AAB03EB880151F8CC
S214008D00403C0199184605930FF004FE0690002893
S214008D10E5D101980FF03CFADDE906230146DAF8C2
S214008D200400D7F800A090F80CC0BCF1FE0F16D1D6
S214008D3003F1FF3EC64512D0D0F800900598019288
S214008D400FF026FA0AF1010A019A50442B5C23B16F
S214008D50386008F101081646B2E70130F6E7D5F8A4
S214008D6094200591A2EB0A028A4220DC58460FF0B6
S214008D700FFA059901447B290DD958461F4A0099D8
S214008D802BF0E4FA2B46049A2A4493422CD1029BF9
S214008D901B68029382E7DDE9001258462BF0D6FAEC
S214008DA05846174A009901342BF0D0FA97E7BCF1E1
S214008DB0FE0F94D1013B434591D1D0F800A0DFF8D7
S214008DC040905AF80C2B22B9049B3B60039B1A6018
S214008DD0D8E7584600992BF0B9FA4A465846009903
S214008DE02BF0B4FA0134ECE713F8011B0029CCD1C0
S214008DF04FF0200103F8011CC7E700BF89CA030033
S214008E00B7DC03002DE9F047002486B01C60DDE9DE
S214008E100EA8064689468AF800401168154888F864
S214008E20004017461D468DF81740FDF7F5FC18B9AB
S214008E3001242B6801332B600020D6F89C6036B9DD
S214008E4014B1012388F8003006B0BDE8F087B0689A
S214008E5068B14B460021CDE902A8CDE900750DF1B9
S214008E6017022BF0C6FE9DF81730002BE8D13668A7
S214008E70E5E700BF8ECA03002DE9F0470446ADF5CE
S214008E80447D8022002104A802AF0FF085FA8022DC
S214008E902046009703AB04A9FFF7E0FE01283DD16A
S214008EA004A80FF075F903993B68461A0B4426EAA6
S214008EB0E6762344054604A83246014418460FF0D9
S214008EC09FFC00228255D4F89060039B3968D4F842
S214008ED090201944B14212DCD4F89410E81A0244E7
S214008EE0C4F89020014404AAC4F89410D418251895
S214008EF02B1B002B0DDC0DF5447DBDE8F087A05C38
S214008F002CF012F8D4F8903001360133C4F89030C3
S214008F10DBE714F8010B2CF007F8E9E7EBDD24ADEE
S214008F208022002128460DF5887A0FF035FA0DF1DB
S214008F3010094FF40072002150460FF02DFA4FF042
S214008F4001084A46002312F8016BA6B904A84AF89D
S214008F5028300FF01DF92946334698451CDB19F8D2
S214008F60016B0DF5887C5CF8042B82420CD101F86D
S214008F70016B0133F1E7202E03F1010304BF4AF829
S214008F80283008F10108DEE70DF1100E7244D25CBD
S214008F90B242E8D00022EA54D4F89060039BB34271
S214008FA02FDC23462C4A04A92C482BF0C9FF284660
S214008FB00FF0EEF80646039B3F68F61A1F4426EAB3
S214008FC0E672E01917441D44E11904F19003994232
S214008FD03CD904F19803984238D26A1E81190B1ABC
S214008FE0002B27DD12F8013F00F8013BD4F8903043
S214008FF00133C4F89030D4F894300133C4F8943078
S214009000EDE7D4F890300136E05C2BF08DFFD4F815
S21400901090300133C4F89030C0E7D4F89020013B7C
S2140090200132C4F89020D4F894200132C4F8942079
S214009030002BF2DC00232E44E355731B002B7FF736
S2140090405AAF15F8010B2BF06FFFF6E729460FF025
S214009050D7FB3346ECE700BF79C9030093CA030089
S2140090602DE9F843D0E9245604460F46002294F82A
S2140090709830012B07D10A2F07D1002384F89830A7
S2140090800020BDE8F88300F29F801B2F01D1022349
S214009090F4E70D2F0DD1012384F898300D202BF026
S2140090A043FF0A202BF040FF00230120C4E92433AD
S2140090B0E7E74FF00008082F84F8988034D145453C
S2140090C030DDB5420FD138462BF02EFF20202BF096
S2140090D02BFF013D38462BF027FF013E04F80580A4
S2140090E0C4E92456CCE7FBDA05F1FF3938462BF005
S2140090F01BFF04EB0903A6EB0902611918460FF0E3
S21400910041FA04F806800146013E48482BF018FF55
S21400911035464D4501DC4D46E2E708202BF004FFBE
S214009120013DF6E7ACD0DBE77F2F1CD1002EA7DD94
S214009130B542A5DA6319691C21441846721B0FF064
S21400914021FA04F80680014639482BF0F9FE08207B
S214009150013E2BF0E9FEB542F9D1D4F89430013B3C
S214009160C4F894308CE70A2F98D0092F03D12046F4
S214009170FFF782FE84E7D4F88C30013BB3427FF7DA
S2140091807FAFB54204EB050805F101090CDB384654
S21400919088F80070D4F89430C4F890900133C4F87E
S2140091A094302BF0C1FE6BE74146721B04EB0900BE
S2140091B00FF0E8F940462BF0C3FE0820013E2BF0E6
S2140091C0B3FEB542F9DDE2E7022B06D15B2F01D1F3
S2140091D0032353E784F8982049E7032B7FF450AF26
S2140091E0413F84F89820032F3FF64AAFDFE807F0A8
S2140091F002070A16012120462BF047FE40E74FF0F3
S214009200FF31F8E7B542BFF63BAF605D2BF08CFE52
S214009210D4F890300133C4F8903031E7002D7FF752
S2140092202FAF013D0820C4F89050BAE79CCA03004F
S2140092303AD8030013B50024064A6846536F43F035
S2140092400103536700948DF80440FEF7FFF92046AB
S21400925002B010BD0040005008B50248FEF7AEF858
S214009260002008BD00B4C40430B58BB06C46174D62
S2140092700FCD0FC40FCD0FC495E8030084E803009C
S214009280134BD3F84C2112031CD5A3F5FE431C88C0
S2140092904FF6FF739C4208BF8C248DF81940FEF7EA
S2140092A075F9204480F308008DF818000948FDF78A
S2140092B093FB6846FEF7D2F83220FEF76DF90020E1
S2140092C00BB030BDD3F85041E4B2E6E76862040064
S2140092D00080E00F00F049026FF00403502110B543
S2140092E00A480B4C13F0800F03F1010207D1234408
S2140092F03D2A83F800131346F4D1002010BD03F076
S2140093000F03043B034419761346EBE700ED00E039
S21400931000E100E010B504462BF08EF8024B1C600E
S2140093202BF08EF8002010BDE03E002010B52BF08C
S21400933083F8034B1C682BF083F8204610BD00BF53
S214009340E03E002038B50C461546014610B9FFF73A
S214009350EDFF01462B46224603480DF0F1FE00289D
S214009360D4BF3720002038BDCD50030007B501F02C
S2140093707FFB6A4601F0E2FB18B15221034800F079
S214009380DDFADDE9000103B05DF804FBA1CA0300C5
S21400939008B501F0A9FA18B17A21024800F0CEFA11
S2140093A0002008BDA1CA030008B500F025FA0D4A42
S2140093B0536A43F470235362EFF308834FF0CD31C2
S2140093C0094A043B934209D20222084B1A67FFF768
S2140093D0DFFFBDE808400648FEF7AEBA43F80419BA
S2140093E0F0E700BF00ED00E0000000200040005065
S2140093F0C460040007B5042200200DEB02012FF024
S214009400CAFE042804D040F26711044800F096FA19
S214009410019800F0DBFB03B05DF804FBA1CA030073
S214009420082310B50C0A41400648C9B241F30002B1
S214009430013B024013F0FF0382EA5101F6D184EAB1
S214009440010010BD2083B8ED2DE9F8430025134C2C
S214009450134EDFF85480134FDFF8509023780BB983
S214009460BDE8F88322464146002056F8043B2BF020
S21400947036FE227823460134002AFAD15B7853B1AF
S21400948005F00303032B14BF4946394600202BF092
S21400949026FE0135E2E73946F8E700BF20640400FF
S2140094A0001000207DC8030023CB03000F1A040021
S2140094B040F605226A4B2DE9F0411B8893420ED8F0
S2140094C0B3F5206F0DD840F20252934218D040F206
S2140094D00172934220D040F2015293420AD0BDE876
S2140094E0F081A3F602235F4C032B1ED8DFE803F0BF
S2140094F0376396B25C490020BDE8F0412BF0EFBD23
S21400950000205A492BF0EBFD564B1A6C0020BDE8A4
S214009510F04157492BF0E3BD524A0020D2E92423FC
S214009520BDE8F04153492BF0DABD002052492BF03C
S214009530D6FD94F868309E0703D500204F492BF0DF
S214009540CEFD94F86B305D0603D500204C492BF019
S214009550C6FD94F96B30002BC1DA4A49CBE70020F0
S21400956049492BF0BCFD94F86430980704D00020DD
S214009570226C3F492BF0B3FD94F96430002B04DADB
S2140095800020226F41492BF0AAFD00250126404FFE
S214009590DFF80881626E06FA05F3134207D057F823
S2140095A0252013781BB1414600202BF098FD01358D
S2140095B0082DEFD193E7374900202BF090FD2C497A
S2140095C00020226C2BF08BFD94F86530590703D5EC
S2140095D0002031492BF083FD94F96530002B04DA26
S2140095E00020226F29492BF07AFD0825284E2B4FA4
S2140095F0636EEB40DA0707D556F8252013781BB1C3
S214009600394600202BF06BFD0135102DF0D194F873
S214009610640000287FF463AF21496DE721490020EC
S2140096202BF05DFD0020226C11492BF058FD102513
S214009630174E1A4F636EEB40DB0707D556F825200A
S21400964013781BB1394600202BF049FD01351A2D41
S214009650F0D144E7002014492BF041FD226C55E779
S214009660AA5D0020001000202DCB03006BCB03006A
S2140096709CCB0300B7CB0300D3CB0300ECCB03009B
S21400968027CC03005BCC030098CC0300BECC0300C1
S214009690E0650400E5CC0300FDCC0300DCCC030051
S2140096A044CD030075CD03008FCD03002DE9F04FA8
S2140096B0424C85B0D4E90D32580748BF0026D4E99D
S2140096C0121B48BFB046D4F83CA05FBFD4F8508009
S2140096D08B4692463A4E54BFDFF81091DFF8109151
S2140096E013F0080F374B384A18BF1A46B6EB080770
S2140096F01FBF64237D0803FB0B55B5FBF7F50CBFB6
S2140097003D46ADB24B4631490020CDE9016ACDF861
S2140097100080BFB22BF0E3FC2B460020CDE900977B
S2140097202B491FFA8BF22BF0DAFCB24501D8C24562
S21400973004D24A46002027492BF0D1FCD4E917036F
S214009740184338D0002024492BF0C9FC00250126F8
S214009750224FDFF8A080E26D06FA05F3134207D029
S21400976057F8252013781BB1414600202BF0B7FC94
S2140097700135202DEFD100250126194FDFF8748022
S214009780226E06FA05F3134207D057F82520137801
S2140097901BB1414600202BF0A2FC01351D2DEFD158
S2140097A0002010492BF09BFC00200E4905B0BDE8B8
S2140097B0F04F2BF094BC0C49F4E700BF00100020DB
S2140097C000100020B6CD0300BDCD0300C5CD0300BC
S2140097D0F7CD030031CE030050CE0300EC64040046
S2140097E06C6504007EC8030080CE0300B1CD030084
S2140097F0990F0400BEE5030010B5FEF71FF80446F7
S2140098002AF041FEE30721D401221046114600FA51
S21400981001F3234002F101021AD0214B33F8113034
S2140098202049062B19D040F20722934212D14FF05E
S21400983000524FF20F00548884420BD11088984291
S21400984008D14CF23C335380088010BD0021E4E779
S214009850102ADBD1134A138012E04FF000534FF268
S2140098600F025888904218D11B88B3F5406F28BF66
S2140098704FF4C0630B804CF23C324FF000535A80DA
S214009880084B1A8840F201739A4201BF064B074AFA
S214009890D2E90001C3E90001D7E74FF4C063E9E766
S2140098A000640400AA5D0020E43E00209010002022
S2140098B0014B1888704700BFAA5D0020014B18882E
